{
  "contractName": "Campaign",
  "abi": [
    {
      "inputs": [
        {
          "internalType": "uint256",
          "name": "minimum",
          "type": "uint256"
        },
        {
          "internalType": "address",
          "name": "sender",
          "type": "address"
        }
      ],
      "stateMutability": "nonpayable",
      "type": "constructor"
    },
    {
      "inputs": [
        {
          "internalType": "address",
          "name": "",
          "type": "address"
        }
      ],
      "name": "contributors",
      "outputs": [
        {
          "internalType": "bool",
          "name": "",
          "type": "bool"
        }
      ],
      "stateMutability": "view",
      "type": "function"
    },
    {
      "inputs": [],
      "name": "manager",
      "outputs": [
        {
          "internalType": "address",
          "name": "",
          "type": "address"
        }
      ],
      "stateMutability": "view",
      "type": "function"
    },
    {
      "inputs": [],
      "name": "minimumContribution",
      "outputs": [
        {
          "internalType": "uint256",
          "name": "",
          "type": "uint256"
        }
      ],
      "stateMutability": "view",
      "type": "function"
    },
    {
      "inputs": [
        {
          "internalType": "uint256",
          "name": "",
          "type": "uint256"
        }
      ],
      "name": "requests",
      "outputs": [
        {
          "internalType": "string",
          "name": "description",
          "type": "string"
        },
        {
          "internalType": "uint256",
          "name": "value",
          "type": "uint256"
        },
        {
          "internalType": "address payable",
          "name": "recipient",
          "type": "address"
        },
        {
          "internalType": "bool",
          "name": "complete",
          "type": "bool"
        },
        {
          "internalType": "uint256",
          "name": "approvalsCount",
          "type": "uint256"
        }
      ],
      "stateMutability": "view",
      "type": "function"
    },
    {
      "inputs": [],
      "name": "requestsCount",
      "outputs": [
        {
          "internalType": "uint256",
          "name": "",
          "type": "uint256"
        }
      ],
      "stateMutability": "view",
      "type": "function"
    },
    {
      "inputs": [],
      "name": "contribute",
      "outputs": [],
      "stateMutability": "payable",
      "type": "function"
    },
    {
      "inputs": [
        {
          "internalType": "string",
          "name": "description",
          "type": "string"
        },
        {
          "internalType": "uint256",
          "name": "value",
          "type": "uint256"
        },
        {
          "internalType": "address payable",
          "name": "recipient",
          "type": "address"
        }
      ],
      "name": "createRequest",
      "outputs": [],
      "stateMutability": "nonpayable",
      "type": "function"
    },
    {
      "inputs": [
        {
          "internalType": "uint256",
          "name": "index",
          "type": "uint256"
        }
      ],
      "name": "approveRequest",
      "outputs": [],
      "stateMutability": "nonpayable",
      "type": "function"
    },
    {
      "inputs": [
        {
          "internalType": "uint256",
          "name": "index",
          "type": "uint256"
        }
      ],
      "name": "finalizeRequest",
      "outputs": [],
      "stateMutability": "nonpayable",
      "type": "function"
    },
    {
      "inputs": [],
      "name": "getSummary",
      "outputs": [
        {
          "components": [
            {
              "internalType": "address",
              "name": "manager",
              "type": "address"
            },
            {
              "internalType": "uint256",
              "name": "minimumContribution",
              "type": "uint256"
            },
            {
              "internalType": "uint256",
              "name": "contributorsCount",
              "type": "uint256"
            },
            {
              "internalType": "uint256",
              "name": "balance",
              "type": "uint256"
            },
            {
              "internalType": "uint256",
              "name": "requestsCount",
              "type": "uint256"
            }
          ],
          "internalType": "struct Campaign.Summary",
          "name": "",
          "type": "tuple"
        }
      ],
      "stateMutability": "view",
      "type": "function"
    }
  ],
  "bytecode": "0x60806040523480156200001157600080fd5b506040516200110f3803806200110f8339818101604052810190620000379190620000b5565b80600260006101000a81548173ffffffffffffffffffffffffffffffffffffffff021916908373ffffffffffffffffffffffffffffffffffffffff16021790555081600381905550505062000168565b600081519050620000988162000134565b92915050565b600081519050620000af816200014e565b92915050565b60008060408385031215620000c957600080fd5b6000620000d9858286016200009e565b9250506020620000ec8582860162000087565b9150509250929050565b600062000103826200010a565b9050919050565b600073ffffffffffffffffffffffffffffffffffffffff82169050919050565b6000819050919050565b6200013f81620000f6565b81146200014b57600080fd5b50565b62000159816200012a565b81146200016557600080fd5b50565b610f9780620001786000396000f3fe6080604052600436106100915760003560e01c80638a9cfd55116100595780638a9cfd5514610193578063937e09b1146101bc578063d7bb99ba146101e7578063d7d1bbdb146101f1578063fbfa4b7f1461021a57610091565b806303441006146100965780631f6d4942146100bf5780634051ddac146100fc578063481c6a751461012757806381d12c5814610152575b600080fd5b3480156100a257600080fd5b506100bd60048036038101906100b89190610a7a565b610245565b005b3480156100cb57600080fd5b506100e660048036038101906100e191906109ea565b61037f565b6040516100f39190610bb9565b60405180910390f35b34801561010857600080fd5b5061011161039f565b60405161011e9190610c2e565b60405180910390f35b34801561013357600080fd5b5061013c610411565b6040516101499190610b9e565b60405180910390f35b34801561015e57600080fd5b5061017960048036038101906101749190610a7a565b610437565b60405161018a959493929190610bd4565b60405180910390f35b34801561019f57600080fd5b506101ba60048036038101906101b59190610a13565b610522565b005b3480156101c857600080fd5b506101d161063a565b6040516101de9190610c49565b60405180910390f35b6101ef610640565b005b3480156101fd57600080fd5b5061021860048036038101906102139190610a7a565b610718565b005b34801561022657600080fd5b5061022f610855565b60405161023c9190610c49565b60405180910390f35b600260009054906101000a900473ffffffffffffffffffffffffffffffffffffffff1673ffffffffffffffffffffffffffffffffffffffff163373ffffffffffffffffffffffffffffffffffffffff161461029f57600080fd5b600080600083815260200190815260200160002090508060020160149054906101000a900460ff16156102d157600080fd5b60026005546102e09190610cd6565b8160030154116102ef57600080fd5b8060020160009054906101000a900473ffffffffffffffffffffffffffffffffffffffff1673ffffffffffffffffffffffffffffffffffffffff166108fc82600101549081150290604051600060405180830381858888f1935050505015801561035d573d6000803e3d6000fd5b5060018160020160146101000a81548160ff0219169083151502179055505050565b60046020528060005260406000206000915054906101000a900460ff1681565b6103a761085b565b6040518060a00160405280600260009054906101000a900473ffffffffffffffffffffffffffffffffffffffff1673ffffffffffffffffffffffffffffffffffffffff16815260200160035481526020016005548152602001478152602001600154815250905090565b600260009054906101000a900473ffffffffffffffffffffffffffffffffffffffff1681565b600060205280600052604060002060009150905080600001805461045a90610da3565b80601f016020809104026020016040519081016040528092919081815260200182805461048690610da3565b80156104d35780601f106104a8576101008083540402835291602001916104d3565b820191906000526020600020905b8154815290600101906020018083116104b657829003601f168201915b5050505050908060010154908060020160009054906101000a900473ffffffffffffffffffffffffffffffffffffffff16908060020160149054906101000a900460ff16908060030154905085565b600260009054906101000a900473ffffffffffffffffffffffffffffffffffffffff1673ffffffffffffffffffffffffffffffffffffffff163373ffffffffffffffffffffffffffffffffffffffff161461057c57600080fd5b60008060006001600081548092919061059490610e06565b9190505581526020019081526020016000209050838160000190805190602001906105c09291906108a0565b50828160010181905550818160020160006101000a81548173ffffffffffffffffffffffffffffffffffffffff021916908373ffffffffffffffffffffffffffffffffffffffff16021790555060008160020160146101000a81548160ff0219169083151502179055506000816003018190555050505050565b60035481565b600460003373ffffffffffffffffffffffffffffffffffffffff1673ffffffffffffffffffffffffffffffffffffffff16815260200190815260200160002060009054906101000a900460ff161561069757600080fd5b6003543410156106a657600080fd5b6001600460003373ffffffffffffffffffffffffffffffffffffffff1673ffffffffffffffffffffffffffffffffffffffff16815260200190815260200160002060006101000a81548160ff0219169083151502179055506005600081548092919061071190610e06565b9190505550565b60008060008381526020019081526020016000209050600460003373ffffffffffffffffffffffffffffffffffffffff1673ffffffffffffffffffffffffffffffffffffffff16815260200190815260200160002060009054906101000a900460ff1661078457600080fd5b8060040160003373ffffffffffffffffffffffffffffffffffffffff1673ffffffffffffffffffffffffffffffffffffffff16815260200190815260200160002060009054906101000a900460ff16156107dd57600080fd5b60018160040160003373ffffffffffffffffffffffffffffffffffffffff1673ffffffffffffffffffffffffffffffffffffffff16815260200190815260200160002060006101000a81548160ff02191690831515021790555080600301600081548092919061084c90610e06565b91905055505050565b60015481565b6040518060a00160405280600073ffffffffffffffffffffffffffffffffffffffff168152602001600081526020016000815260200160008152602001600081525090565b8280546108ac90610da3565b90600052602060002090601f0160209004810192826108ce5760008555610915565b82601f106108e757805160ff1916838001178555610915565b82800160010185558215610915579182015b828111156109145782518255916020019190600101906108f9565b5b5090506109229190610926565b5090565b5b8082111561093f576000816000905550600101610927565b5090565b600061095661095184610c89565b610c64565b90508281526020810184848401111561096e57600080fd5b610979848285610d61565b509392505050565b60008135905061099081610f1c565b92915050565b6000813590506109a581610f33565b92915050565b600082601f8301126109bc57600080fd5b81356109cc848260208601610943565b91505092915050565b6000813590506109e481610f4a565b92915050565b6000602082840312156109fc57600080fd5b6000610a0a84828501610981565b91505092915050565b600080600060608486031215610a2857600080fd5b600084013567ffffffffffffffff811115610a4257600080fd5b610a4e868287016109ab565b9350506020610a5f868287016109d5565b9250506040610a7086828701610996565b9150509250925092565b600060208284031215610a8c57600080fd5b6000610a9a848285016109d5565b91505092915050565b610aac81610d19565b82525050565b610abb81610d07565b82525050565b610aca81610d07565b82525050565b610ad981610d2b565b82525050565b6000610aea82610cba565b610af48185610cc5565b9350610b04818560208601610d70565b610b0d81610f0b565b840191505092915050565b60a082016000820151610b2e6000850182610ab2565b506020820151610b416020850182610b80565b506040820151610b546040850182610b80565b506060820151610b676060850182610b80565b506080820151610b7a6080850182610b80565b50505050565b610b8981610d57565b82525050565b610b9881610d57565b82525050565b6000602082019050610bb36000830184610ac1565b92915050565b6000602082019050610bce6000830184610ad0565b92915050565b600060a0820190508181036000830152610bee8188610adf565b9050610bfd6020830187610b8f565b610c0a6040830186610aa3565b610c176060830185610ad0565b610c246080830184610b8f565b9695505050505050565b600060a082019050610c436000830184610b18565b92915050565b6000602082019050610c5e6000830184610b8f565b92915050565b6000610c6e610c7f565b9050610c7a8282610dd5565b919050565b6000604051905090565b600067ffffffffffffffff821115610ca457610ca3610edc565b5b610cad82610f0b565b9050602081019050919050565b600081519050919050565b600082825260208201905092915050565b6000610ce182610d57565b9150610cec83610d57565b925082610cfc57610cfb610e7e565b5b828204905092915050565b6000610d1282610d37565b9050919050565b6000610d2482610d37565b9050919050565b60008115159050919050565b600073ffffffffffffffffffffffffffffffffffffffff82169050919050565b6000819050919050565b82818337600083830152505050565b60005b83811015610d8e578082015181840152602081019050610d73565b83811115610d9d576000848401525b50505050565b60006002820490506001821680610dbb57607f821691505b60208210811415610dcf57610dce610ead565b5b50919050565b610dde82610f0b565b810181811067ffffffffffffffff82111715610dfd57610dfc610edc565b5b80604052505050565b6000610e1182610d57565b91507fffffffffffffffffffffffffffffffffffffffffffffffffffffffffffffffff821415610e4457610e43610e4f565b5b600182019050919050565b7f4e487b7100000000000000000000000000000000000000000000000000000000600052601160045260246000fd5b7f4e487b7100000000000000000000000000000000000000000000000000000000600052601260045260246000fd5b7f4e487b7100000000000000000000000000000000000000000000000000000000600052602260045260246000fd5b7f4e487b7100000000000000000000000000000000000000000000000000000000600052604160045260246000fd5b6000601f19601f8301169050919050565b610f2581610d07565b8114610f3057600080fd5b50565b610f3c81610d19565b8114610f4757600080fd5b50565b610f5381610d57565b8114610f5e57600080fd5b5056fea2646970667358221220b7736f2c530b8d7b2ea0633541636a2e4fc1270f716630c15a0d5117960a2e4f64736f6c63430008030033",
  "immutableReferences": {},
  "source": "// SPDX-License-Identifier: MIT\r\npragma solidity >=0.4.22 <0.9.0;\r\n\r\ncontract Campaign {\r\n    struct Request {\r\n        string description;\r\n        uint256 value;\r\n        address payable recipient;\r\n        bool complete;\r\n        uint256 approvalsCount;\r\n        mapping(address => bool) approvers;\r\n    }\r\n    struct Summary {\r\n        address manager;\r\n        uint256 minimumContribution;\r\n        uint256 contributorsCount;\r\n        uint256 balance;\r\n        uint256 requestsCount;\r\n    }\r\n\r\n    mapping(uint256 => Request) public requests;\r\n    uint256 public requestsCount;\r\n\r\n    address public manager;\r\n    uint256 public minimumContribution;\r\n\r\n    mapping(address => bool) public contributors;\r\n    uint256 contributorsCount;\r\n\r\n    constructor(uint256 minimum, address sender) {\r\n        manager = sender;\r\n        minimumContribution = minimum;\r\n    }\r\n\r\n    function contribute() public payable {\r\n        require(!contributors[msg.sender]);\r\n        require(msg.value >= minimumContribution);\r\n\r\n        contributors[msg.sender] = true;\r\n        contributorsCount++;\r\n    }\r\n\r\n    function createRequest(\r\n        string memory description,\r\n        uint256 value,\r\n        address payable recipient\r\n    ) public restricted {\r\n        Request storage r = requests[requestsCount++];\r\n\r\n        r.description = description;\r\n        r.value = value;\r\n        r.recipient = recipient;\r\n        r.complete = false;\r\n        r.approvalsCount = 0;\r\n    }\r\n\r\n    function approveRequest(uint256 index) public {\r\n        Request storage request = requests[index];\r\n\r\n        require(contributors[msg.sender]);\r\n        require(!request.approvers[msg.sender]);\r\n\r\n        request.approvers[msg.sender] = true;\r\n        request.approvalsCount++;\r\n    }\r\n\r\n    function finalizeRequest(uint256 index) public restricted {\r\n        Request storage request = requests[index];\r\n\r\n        require(!request.complete);\r\n        require(request.approvalsCount > (contributorsCount / 2));\r\n\r\n        request.recipient.transfer(request.value);\r\n        request.complete = true;\r\n    }\r\n\r\n    function getSummary() public view returns (Summary memory) {\r\n        return\r\n            Summary({\r\n                manager: manager,\r\n                minimumContribution: minimumContribution,\r\n                contributorsCount: contributorsCount,\r\n                balance: address(this).balance,\r\n                requestsCount: requestsCount\r\n            });\r\n    }\r\n\r\n    modifier restricted() {\r\n        require(msg.sender == manager);\r\n        _;\r\n    }\r\n}\r\n",
  "sourcePath": "C:/Users/Toni/Desktop/Courses/Solidity/kickstart/packages/kickstart-ethereum/contracts/Campaign.sol",
  "compiler": {
    "name": "solc",
    "version": "0.8.3+commit.8d00100c.Emscripten.clang"
  },
  "schemaVersion": "3.3.4",
  "updatedAt": "2021-04-23T11:06:45.995Z",
  "devdoc": {
    "kind": "dev",
    "methods": {},
    "version": 1
  },
  "userdoc": {
    "kind": "user",
    "methods": {},
    "version": 1
  }
}